:100000000C949C000C94B9000C94B9000C94300230
:100010000C94B9000C94B9000C94B9000C94B9007C
:100020000C94B9000C94B9000C94B9000C94B9006C
:100030000C94B9000C94B9000C94B9000C94B9005C
:100040000C94B9000C94B9000C94B9000C94B9004C
:100050000C94B9000C94B9000C94B9000C94B9003C
:100060000C94B9000C94B9000C94B9000C94B9002C
:100070000C94B9000C94B9000C94B9000403090461
:10008000340355006E00690076006500720073004D
:1000900069007400790020006F00660020005300A2
:1000A0006F0075007400680061006D0070007400DE
:1000B0006F006E0010035000610073007300670052
:1000C00065006E001201100100000008DA1B31E12A
:1000D000000101020001090222000101008019094A
:1000E0000400000103010100092101010001223F78
:1000F000000705810308000A05010906A101750131
:100100009508050719E029E71500250181029501E9
:1001100075088103950575010508190129059102E6
:10012000950175039103950675081500256505076A
:10013000190029658100C00011241FBECFEFD0E156
:10014000DEBFCDBF11E0A0E0B1E0EAEBF9E002C014
:1001500005900D92A432B107D9F711E0A4E2B1E005
:1001600001C01D92A836B107E1F70E9425040C9446
:10017000DB040C940000E9E6F0E08081806380837A
:10018000EA9A8BE480933E018AE580933D010895CD
:100190001F93DC01162F80913D0184FF07C08091E1
:1001A0003E0198E8892780933E0103C08AE5809349
:1001B0003D01912FEFE3F1E08D918193915019165C
:1001C000DCF38FE391E0612F0E9419021C5F109312
:1001D0003D011F9108951F93CF93DF9390914E019E
:1001E000935097FDA7C020914B0180914A018D3219
:1001F00009F09EC0983009F09BC0CCE0D0E0C21B53
:10020000D109CE5ADE4F83EC809332018AE5809388
:100210000001109225018881807629F0CE010E948C
:10022000F203282F7CC09A8110923B018981882398
:1002300021F410923C0122E06CC0853019F49093B7
:100240004F0166C0863009F04FC08B81813041F488
:1002500084EC90E090934D0180934C0122E140C0EA
:10026000823041F486ED90E090934D0180934C01F3
:1002700022E236C08330F9F48A81882341F48CE786
:1002800090E090934D0180934C0124E029C081308F
:1002900041F480E890E090934D0180934C0124E379
:1002A0001FC08230E1F484EB90E090934D01809385
:1002B0004C0120E115C0813241F488EE90E090932A
:1002C0004D0180934C0129E00BC0823241F488EF4C
:1002D00090E090934D0180934C012FE301C020E00A
:1002E00080E4809325011BC0883021F421E081E562
:1002F00091E011C0893019F49093510109C08A30FE
:1003000011F421E006C08B3019F48BE480933E0198
:1003100020E08BE391E090934D0180934C018F811D
:10032000882321F48E81821708F4282F209301015D
:1003300010924E018091000184FF4AC0809101011A
:100340008F3F09F445C0182F893008F018E0811B51
:10035000809301018091320198E8892780933201CE
:10036000112341F120914C0130914D0180912501E3
:1003700086FF0DC0A3E3B1E080E090E0F901E80F53
:10038000F91FE491ED9301961817C1F708C0912F5A
:10039000D901E3E3F1E08D9181939150E1F71150A0
:1003A000812F90E01F5F0196820F931F90934D0164
:1003B00080934C0183E391E0612F0E941902612F29
:1003C0006C5F6C3019F08FEF809301016093000136
:1003D00094E183B18C7031F49150D9F710924F01B0
:1003E0001092490110E0992309F411E08091240151
:1003F000811731F0112311F40E9476041093240127
:10040000DF91CF911F910895A82FB92F80E090E040
:1004100041E050EA609530E009C02D918227979520
:10042000879510F084279527305EC8F36F5FA8F397
:100430000895EADF8D939D930895A6E08827992774
:10044000AA9569F00197E1F31B99FCCF1B9BFECFA6
:1004500081E09927A3B1019611F0AC70D9F7089506
:10046000CF93CFB7CF93C3951B9BE9F71B9B09C0D5
:100470001B9B07C01B9B05C01B9B03C01B9B01C094
:10048000A3C0DF93C0914B01DD27CE5ADE4F1B9BEB
:1004900002C0DF91EBCF2F930F931F9303B12FEF88
:1004A00003FB20F94F933F9313B14FEF012703FB59
:1004B00021F93BE031C04E7F012F13B1216028C0EC
:1004C000102F4D7F2260000003B129C04B7F2460B4
:1004D000012F000013B12BC013B1477F28602AC041
:1004E0004F7E03B120612CC04F7D13B120622FC01D
:1004F0004F7B03B1206432C0422703B149934FEFD1
:100500000000102713FB20F913B11C70C9F1297FDB
:1005100091F2012703FB21F903B1237F89F23150C6
:1005200058F1102713FB22F913B1277E79F2012726
:1005300003FB23F92F7C81F203B1102713FB24F96D
:100540002F7971F200C013B1012703FB25F92F7336
:1005500059F200C003B1102713FB26F9223040F2F4
:1005600000C013B1012703FB27F9243028F64F7789
:10057000206813B10000F9CF14E01CBB002719C09C
:100580003B503195C31BD04014E01CBB0881033C99
:10059000F9F00B34E9F0209149011981110F121380
:1005A000EDCF4A81441F093641F10D3211F0013E71
:1005B00029F7009350013F914F911F910F912F9177
:1005C000DF91CCB3C2FD4FCFCF91CFBFCF91189564
:1005D00020915001222379F310914E01112369F5E6
:1005E00034306AF130934E0120934A0110914B014F
:1005F0003BE0311B30934B0122C000914E01013092
:10060000E4F40AE54F7049F43091000134FD19C05B
:1006100000930001C2E3D1E018C030913D0134FDE8
:1006200010C000933D01CEE3D1E00FC02795A8F4A0
:100630005150A9F4220F0000F9CF4AE503C042ED62
:1006400001C0432FC4E1D0E032E014B11C602B9A0A
:1006500014B905B120E41CE05F93012756E005B909
:10066000279520F4515021F4220FF9CF012756E0AD
:1006700000003B5A05B9D0F2279528F4515029F4CF
:10068000220F0000F9CF012756E0279505B920F485
:10069000515021F4220FF9CF012756E0299133233D
:1006A00005B921F6037F10914F01110FC651D040BB
:1006B00005B911F01093490114E01CBB086014B196
:1006C000137F402F437F5F9100C000C005B914B96C
:1006D00045B971CF1092C5008DE48093C40088E1C4
:1006E0008093C10086E08093C20008958091C0008D
:1006F00087FFFCCF8091C6000895982F8091270135
:10070000882351F0E0912601E03230F4F0E0EE5F12
:10071000FE4F8081882331F41092290110922B0121
:1007200080E0089520912201222309F44EC0892FF0
:1007300080538A3048F410922901903311F487E2F3
:100740003FC0892F83513CC0892F81568A3138F4AC
:10075000809128018270809329019D550EC0892FB8
:1007600081548A3168F48091280181FD02C082E0C1
:1007700001C080E0809329019D5390932B0129C0F3
:100780001092290110922B019D32A9F09E3248F45B
:10079000903299F09132E8F4993089F09A30C9F4A6
:1007A00012C09E3219F09F35A1F402C087E308C041
:1007B00082E0809329018DE203C08CE201C08BE2CC
:1007C00080932B0106C088E2FBCF10922901109282
:1007D0002B0110922201222319F481E0809322013F
:1007E00081E00895FC0180818076803261F581810D
:1007F0008230E1F0833018F4813029F505C089306A
:1008000079F08A3001F51AC089E291E090934D01A8
:1008100080934C011092290110922B0188E00895D9
:1008200086819781019779F48FEF089581E391E0B4
:1008300090934D0180934C0181E0089583818093D2
:10084000310180E0089580E0089582E091E060E069
:1008500070E040E250E00E94CB041092260181E05B
:1008600080932701E9E2F1E0119281E0E133F8079A
:10087000D9F72EE088E190E00FB6F894A895809320
:1008800060000FBE209360001092C5008DE480933D
:10089000C40088E18093C10086E08093C2000E947A
:1008A000BB00239A20E040E757E1A895CA010197D1
:1008B000F1F72F5F2A3FC9F723987894A8950E94F3
:1008C000EB009091C60080913D0184FFF7CF8091AD
:1008D0002701813099F7892F0E947D03809327019A
:1008E00089E291E068E00E94C800E8CFCF92DF92F1
:1008F000EF92FF920F931F93CF93DF93CFE0D7E256
:10090000CC24DD24DD2011F010E801C010E040E02F
:1009100050E000E4EE24FF24415B564014F4100F35
:1009200001C0101B109366000E941D029C01AC01C7
:1009300086E0223B380714F0C90104C088279927B4
:10094000821B930B815B96408C179D076CF486E0AD
:10095000223B380714F0E90104C0CC27DD27C21B75
:10096000D30BC15BD640C12E06950894E11CF11C47
:1009700087E0E816F10481F6D39482E0D81611F6E8
:10098000C0926600DF91CF911F910F91FF90EF9081
:10099000DF90CF900895DC01CB01FC01F999FECFE7
:1009A00006C0F2BDE1BDF89A319600B40D924150F7
:0A09B0005040B8F70895F894FFCF07
:1009BA005AFF0000000000000000000000000000D4
:1009CA00000000000000000000000000000000001D
:0409DA000000010018
:00000001FF
