:100000000C949C000C94B9000C94C4040C94300221
:100010000C94B9000C94B9000C94B9000C94B9007C
:100020000C94B9000C94B9000C94B9000C94B9006C
:100030000C94B9000C94B9000C94B9000C94B9005C
:100040000C94B9000C94B9000C94B9000C94B9004C
:100050000C94B9000C94B9000C94B9000C94B9003C
:100060000C94B9000C94B9000C94B9000C94B9002C
:100070000C94B9000C94B9000C94B9000403090461
:10008000340355006E00690076006500720073004D
:1000900069007400790020006F00660020005300A2
:1000A0006F0075007400680061006D0070007400DE
:1000B0006F006E0010035000610073007300670052
:1000C00065006E001201100100000008DA1B31E12A
:1000D000000101020001090222000101008019094A
:1000E0000400000103010100092101010001223F78
:1000F000000705810308000A05010906A101750131
:100100009508050719E029E71500250181029501E9
:1001100075088103950575010508190129059102E6
:10012000950175039103950675081500256505076A
:10013000190029658100C00011241FBECFEFD0E156
:10014000DEBFCDBF11E0A0E0B1E0E8EEFBE002C011
:1001500005900D92A430B107D9F711E0A4E0B1E009
:1001600001C01D92AB35B107E1F70E944B050C941D
:10017000F2050C940000E9E6F0E080818063808362
:10018000EA9A8BE4809323018AE580932201089503
:100190001F93DC01162F8091220184FF07C08091FC
:1001A000230198E889278093230103C08AE580937F
:1001B0002201912FE4E2F1E08D9181939150191683
:1001C000DCF384E291E0612F0E9419021C5F10931E
:1001D00022011F9108951F93CF93DF9390913301D4
:1001E000935097FDA7C02091300180912F018D324F
:1001F00009F09EC0983009F09BC0CCE0D0E0C21B53
:10020000D109C95CDE4F83EC809317018AE58093A6
:100210000001109205018881807629F0CE010E94AC
:100220009104282F7CC09A81109220018981882313
:1002300021F41092210122E06CC0853019F49093D2
:10024000340166C0863009F04FC08B81813041F4A3
:1002500084EC90E0909332018093310122E140C020
:10026000823041F486ED90E0909332018093310129
:1002700022E236C08330F9F48A81882341F48CE786
:1002800090E0909332018093310124E029C08130C5
:1002900041F480E890E0909332018093310124E3AF
:1002A0001FC08230E1F484EB90E0909332018093A0
:1002B000310120E115C0813241F488EE90E0909345
:1002C00032018093310129E00BC0823241F488EF82
:1002D00090E090933201809331012FE301C020E040
:1002E00080E4809305011BC0883021F421E086E37F
:1002F00091E011C0893019F49093360109C08A3019
:1003000011F421E006C08B3019F48BE480932301B3
:1003100020E080E291E090933201809331018F815F
:10032000882321F48E81821708F4282F209301015D
:10033000109233018091000184FF4AC08091010135
:100340008F3F09F445C0182F893008F018E0811B51
:10035000809301018091170198E889278093170104
:10036000112341F120913101309132018091050139
:1003700086FF0DC0A8E1B1E080E090E0F901E80F50
:10038000F91FE491ED9301961817C1F708C0912F5A
:10039000D901E8E1F1E08D9181939150E1F711509D
:1003A000812F90E01F5F0196820F931F909332017F
:1003B0008093310188E191E0612F0E941902612F41
:1003C0006C5F6C3019F08FEF809301016093000136
:1003D00094E183B18C7031F49150D9F710923401CB
:1003E00010922E0110E0992309F411E0809104018C
:1003F000811731F0112311F40E949D05109304011F
:10040000DF91CF911F910895A82FB92F80E090E040
:1004100041E050EA609530E009C02D918227979520
:10042000879510F084279527305EC8F36F5FA8F397
:100430000895EADF8D939D930895A6E08827992774
:10044000AA9569F00197E1F31B99FCCF1B9BFECFA6
:1004500081E09927A3B1019611F0AC70D9F7089506
:10046000CF93CFB7CF93C3951B9BE9F71B9B09C0D5
:100470001B9B07C01B9B05C01B9B03C01B9B01C094
:10048000A3C0DF93C0913001DD27C95CDE4F1B9B09
:1004900002C0DF91EBCF2F930F931F9303B12FEF88
:1004A00003FB20F94F933F9313B14FEF012703FB59
:1004B00021F93BE031C04E7F012F13B1216028C0EC
:1004C000102F4D7F2260000003B129C04B7F2460B4
:1004D000012F000013B12BC013B1477F28602AC041
:1004E0004F7E03B120612CC04F7D13B120622FC01D
:1004F0004F7B03B1206432C0422703B149934FEFD1
:100500000000102713FB20F913B11C70C9F1297FDB
:1005100091F2012703FB21F903B1237F89F23150C6
:1005200058F1102713FB22F913B1277E79F2012726
:1005300003FB23F92F7C81F203B1102713FB24F96D
:100540002F7971F200C013B1012703FB25F92F7336
:1005500059F200C003B1102713FB26F9223040F2F4
:1005600000C013B1012703FB27F9243028F64F7789
:10057000206813B10000F9CF14E01CBB002719C09C
:100580003B503195C31BD04014E01CBB0881033C99
:10059000F9F00B34E9F020912E011981110F12139B
:1005A000EDCF4A81441F093641F10D3211F0013E71
:1005B00029F7009335013F914F911F910F912F9192
:1005C000DF91CCB3C2FD4FCFCF91CFBFCF91189564
:1005D00020913501222379F310913301112369F51C
:1005E00034306AF13093330120932F0110913001A0
:1005F0003BE0311B3093300122C0009133010130C8
:10060000E4F40AE54F7049F43091000134FD19C05B
:1006100000930001C7E1D1E018C03091220134FD00
:1006200010C000932201C3E2D1E00FC02795A8F4C7
:100630005150A9F4220F0000F9CF4AE503C042ED62
:1006400001C0432FC4E1D0E032E014B11C602B9A0A
:1006500014B905B120E41CE05F93012756E005B909
:10066000279520F4515021F4220FF9CF012756E0AD
:1006700000003B5A05B9D0F2279528F4515029F4CF
:10068000220F0000F9CF012756E0279505B920F485
:10069000515021F4220FF9CF012756E0299133233D
:1006A00005B921F6037F10913401110FC651D040D6
:1006B00005B911F010932E0114E01CBB086014B1B1
:1006C000137F402F437F5F9100C000C005B914B96C
:1006D00045B971CF809108018C3119F481E680937E
:1006E0004F0180910801823319F482E680934F0113
:1006F00080910801813219F483E680934F01809143
:100700000801833219F484E680934F018091080137
:10071000843219F485E680934F01809108018B3271
:1007200019F486E680934F0180910801843319F40F
:1007300087E680934F0180910801833319F488E69E
:1007400080934F0180910801833419F489E68093E6
:100750004F01809108018B3319F48AE680934F0191
:1007600080910801823419F48BE680934F018091C7
:1007700008018B3419F48CE680934F0180910801B5
:100780008A3319F48DE680934F01809108018133FB
:1007900019F48EE680934F0180910801843419F496
:1007A0008FE680934F01809108018D3419F480E722
:1007B00080934F0180910801853119F481E780937E
:1007C0004F01809108018D3219F482E780934F0127
:1007D000809108018B3119F483E780934F01809158
:1007E00008018C3219F484E780934F01809108014D
:1007F0008C3319F485E780934F01809108018A3288
:1008000019F486E780934F01809108018D3119F426
:1008100087E780934F0180910801823219F488E7BD
:1008200080934F0180910801853319F489E7809303
:100830004F01809108018A3119F48AE780934F01B2
:10084000089580910A01882321F080914F01882327
:1008500031F410920E011092100180E00895209161
:100860000301222309F450C090914F01892F805336
:100870008A3048F410920E01903311F487E23FC0A1
:10088000892F83513CC0892F81568A3138F4809159
:100890000D01827080930E019D550EC0892F8154E9
:1008A0008A3168F480910D0181FD02C082E001C0AF
:1008B00080E080930E019D539093100129C0109207
:1008C0000E01109210019D32A9F09E3248F4903230
:1008D00099F09132E8F4993089F09A30C9F412C055
:1008E0009E3219F09F35A1F402C087E308C082E070
:1008F00080930E018DE203C08CE201C08BE28093F5
:10090000100106C088E2FBCF10920E011092100178
:1009100010920301222319F481E08093030181E006
:100920000895FC0180818076803261F5818182307A
:10093000E1F0833018F4813029F505C0893079F071
:100940008A3001F51AC08EE091E0909332018093D5
:10095000310110920E011092100188E008958681F5
:100960009781019779F48FEF089586E191E0909354
:1009700032018093310181E00895838180931601D3
:1009800080E0089580E008951F920F920FB60F92B5
:1009900011242F933F934F935F936F937F938F9384
:1009A0009F93AF93BF93EF93FF9380B18170809338
:1009B0005A0180910C01E82FF0E090915A01E05B20
:1009C000FE4F90838F5F80930C0180910601909180
:1009D000070101969093070180930601809106011B
:1009E00090910701089709F045C010924E011092AE
:1009F0004D011AC080910801880F809308019091E1
:100A00000801E0914D01F0914E01E05BFE4F8081C5
:100A1000892B8093080180914D0190914E010196A0
:100A200090934E0180934D0180914D0190914E0124
:100A3000089701F70E946A03109259011092580119
:100A400020E310C0E0915801F0915901E05BFE4FA6
:100A500020838091580190915901019690935901FA
:100A6000809358018091580190915901089754F34F
:100A700010920C01FF91EF91BF91AF919F918F91D7
:100A80007F916F915F914F913F912F910F900FBE8A
:100A90000F901F90189508981092090181E080939B
:100AA0000A01EEE0F1E0119281E0E631F807D9F7B2
:100AB0002EE088E190E00FB6F894A895809360004E
:100AC0000FBE209360000E94BB00239A20E040E705
:100AD00057E1A895CA010197F1F72F5F2A3FC9F79F
:100AE0002398E2E0F1E080E3819391E0E232F907BC
:100AF000D9F7809169008C6080936900E99A7894B5
:100B0000A8950E94EB0080910B018823C9F31092F5
:100B10000B018091220184FFF3CF80910A01813083
:100B200079F70E94210480930A0110924F018EE010
:100B300091E068E00E94C800E3CFCF92DF92EF928D
:100B4000FF920F931F93CF93DF93CFE0D7E2CC2494
:100B5000DD24DD2011F010E801C010E040E050E09D
:100B600000E4EE24FF24415B564014F4100F01C052
:100B7000101B109366000E941D029C01AC0186E0D0
:100B8000223B380714F0C90104C088279927821B2B
:100B9000930B815B96408C179D076CF486E0223B9B
:100BA000380714F0E90104C0CC27DD27C21BD30BA2
:100BB000C15BD640C12E06950894E11CF11C87E06C
:100BC000E816F10481F6D39482E0D81611F6C092AB
:100BD0006600DF91CF911F910F91FF90EF90DF9012
:080BE000CF900895F894FFCFB7
:040BE8005AFF0001AF
:00000001FF
