:100000000C949C000C94B9000C945F040C94300286
:100010000C94B9000C94B9000C94B9000C94B9007C
:100020000C94B9000C94B9000C94B9000C94B9006C
:100030000C94B9000C94B9000C94B9000C94B9005C
:100040000C94B9000C94B9000C94B9000C94B9004C
:100050000C94B9000C94B9000C94B9000C94B9003C
:100060000C94B9000C94B9000C94B9000C94B9002C
:100070000C94B9000C94B9000C94B9000403090461
:10008000340355006E00690076006500720073004D
:1000900069007400790020006F00660020005300A2
:1000A0006F0075007400680061006D0070007400DE
:1000B0006F006E0010035000610073007300670052
:1000C00065006E001201100100000008DA1B31E12A
:1000D000000101020001090222000101008019094A
:1000E0000400000103010100092101010001223F78
:1000F000000705810308000A05010906A101750131
:100100009508050719E029E71500250181029501E9
:1001100075088103950575010508190129059102E6
:10012000950175039103950675081500256505076A
:10013000190029658100C00011241FBECFEFD0E156
:10014000DEBFCDBF11E0A0E0B1E0E0E0FAE002C028
:1001500005900D92A430B107D9F711E0A4E0B1E009
:1001600001C01D92A635B107E1F70E940F040C945F
:10017000FE040C940000E9E6F0E080818063808357
:10018000EA9A8BE4809322018AE580932101089505
:100190001F93DC01162F8091210184FF07C08091FD
:1001A000220198E889278093220103C08AE5809381
:1001B0002101912FE3E2F1E08D9181939150191685
:1001C000DCF383E291E0612F0E9419021C5F10931F
:1001D00021011F9108951F93CF93DF9390913201D6
:1001E000935097FDA7C020912F0180912E018D3251
:1001F00009F09EC0983009F09BC0CCE0D0E0C21B53
:10020000D109CA5CDE4F83EC809316018AE58093A6
:100210000001109205018881807629F0CE010E94AC
:10022000DC03282F7CC09A8110921F0189818823CA
:1002300021F41092200122E06CC0853019F49093D3
:10024000330166C0863009F04FC08B81813041F4A4
:1002500084EC90E0909331018093300122E140C022
:10026000823041F486ED90E090933101809330012B
:1002700022E236C08330F9F48A81882341F48CE786
:1002800090E0909331018093300124E029C08130C7
:1002900041F480E890E0909331018093300124E3B1
:1002A0001FC08230E1F484EB90E0909331018093A1
:1002B000300120E115C0813241F488EE90E0909346
:1002C00031018093300129E00BC0823241F488EF84
:1002D00090E090933101809330012FE301C020E042
:1002E00080E4809305011BC0883021F421E085E380
:1002F00091E011C0893019F49093350109C08A301A
:1003000011F421E006C08B3019F48BE480932201B4
:1003100020E08FE191E090933101809330018F8153
:10032000882321F48E81821708F4282F209301015D
:10033000109232018091000184FF4AC08091010136
:100340008F3F09F445C0182F893008F018E0811B51
:10035000809301018091160198E889278093160106
:10036000112341F12091300130913101809105013B
:1003700086FF0DC0A7E1B1E080E090E0F901E80F51
:10038000F91FE491ED9301961817C1F708C0912F5A
:10039000D901E7E1F1E08D9181939150E1F711509E
:1003A000812F90E01F5F0196820F931F9093310180
:1003B0008093300187E191E0612F0E941902612F43
:1003C0006C5F6C3019F08FEF809301016093000136
:1003D00094E183B18C7031F49150D9F710923301CC
:1003E00010922D0110E0992309F411E0809104018D
:1003F000811731F0112311F40E94A9041093040114
:10040000DF91CF911F910895A82FB92F80E090E040
:1004100041E050EA609530E009C02D918227979520
:10042000879510F084279527305EC8F36F5FA8F397
:100430000895EADF8D939D930895A6E08827992774
:10044000AA9569F00197E1F31B99FCCF1B9BFECFA6
:1004500081E09927A3B1019611F0AC70D9F7089506
:10046000CF93CFB7CF93C3951B9BE9F71B9B09C0D5
:100470001B9B07C01B9B05C01B9B03C01B9B01C094
:10048000A3C0DF93C0912F01DD27CA5CDE4F1B9B09
:1004900002C0DF91EBCF2F930F931F9303B12FEF88
:1004A00003FB20F94F933F9313B14FEF012703FB59
:1004B00021F93BE031C04E7F012F13B1216028C0EC
:1004C000102F4D7F2260000003B129C04B7F2460B4
:1004D000012F000013B12BC013B1477F28602AC041
:1004E0004F7E03B120612CC04F7D13B120622FC01D
:1004F0004F7B03B1206432C0422703B149934FEFD1
:100500000000102713FB20F913B11C70C9F1297FDB
:1005100091F2012703FB21F903B1237F89F23150C6
:1005200058F1102713FB22F913B1277E79F2012726
:1005300003FB23F92F7C81F203B1102713FB24F96D
:100540002F7971F200C013B1012703FB25F92F7336
:1005500059F200C003B1102713FB26F9223040F2F4
:1005600000C013B1012703FB27F9243028F64F7789
:10057000206813B10000F9CF14E01CBB002719C09C
:100580003B503195C31BD04014E01CBB0881033C99
:10059000F9F00B34E9F020912D011981110F12139C
:1005A000EDCF4A81441F093641F10D3211F0013E71
:1005B00029F7009334013F914F911F910F912F9193
:1005C000DF91CCB3C2FD4FCFCF91CFBFCF91189564
:1005D00020913401222379F310913201112369F51E
:1005E00034306AF13093320120932E0110912F01A3
:1005F0003BE0311B30932F0122C0009132010130CA
:10060000E4F40AE54F7049F43091000134FD19C05B
:1006100000930001C6E1D1E018C03091210134FD02
:1006200010C000932101C2E2D1E00FC02795A8F4C9
:100630005150A9F4220F0000F9CF4AE503C042ED62
:1006400001C0432FC4E1D0E032E014B11C602B9A0A
:1006500014B905B120E41CE05F93012756E005B909
:10066000279520F4515021F4220FF9CF012756E0AD
:1006700000003B5A05B9D0F2279528F4515029F4CF
:10068000220F0000F9CF012756E0279505B920F485
:10069000515021F4220FF9CF012756E0299133233D
:1006A00005B921F6037F10913301110FC651D040D7
:1006B00005B911F010932D0114E01CBB086014B1B2
:1006C000137F402F437F5F9100C000C005B914B96C
:1006D00045B971CF80910901882341F080910801CB
:1006E000882321F490910201992331F410920D0195
:1006F00010920F0180E0089520910301222309F454
:100700004EC0892F80538A3048F410920D019033E7
:1007100011F487E23FC0892F83513CC0892F815655
:100720008A3138F480910C01827080930D019D55BF
:100730000EC0892F81548A3168F480910C0181FDAB
:1007400002C082E001C080E080930D019D53909330
:100750000F0129C010920D0110920F019D32A9F0D6
:100760009E3248F4903299F09132E8F4993089F051
:100770009A30C9F412C09E3219F09F35A1F402C01C
:1007800087E308C082E080930D018DE203C08CE214
:1007900001C08BE280930F0106C088E2FBCF10926C
:1007A0000D0110920F0110920301222319F481E030
:1007B0008093030181E00895FC018081807680327E
:1007C00061F581818230E1F0833018F4813029F5C0
:1007D00005C0893079F08A3001F51AC08DE091E0CA
:1007E000909331018093300110920D0110920F010E
:1007F00088E0089586819781019779F48FEF0895B5
:1008000085E191E0909331018093300181E008957A
:1008100083818093150180E0089580E00895089811
:100820001092080181E080930901EDE0F1E011925E
:1008300081E0E531F807D9F72EE088E190E00FB6C6
:10084000F894A895809360000FBE209360000E94EA
:10085000BB00239A20E040E757E1A895CA01019721
:10086000F1F72F5F2A3FC9F72398E2E0F1E080E338
:10087000819391E0E232F907D9F7809169008C60A9
:1008800080936900E99A7894A8950E94EB00809182
:100890000A018823C9F310920A018091210184FF83
:1008A000F3CF80910901813079F70E946A03809328
:1008B00009018DE091E068E00E94C800E5CF1F9239
:1008C0000F920FB60F9211248F939F93EF93FF9384
:1008D00080B181708093550180910B01E82FF0E089
:1008E00090915501E45BFE4F90838F5F80930B01E5
:1008F00080910601909107010196909307018093E2
:10090000060180910601909107010897C9F4809132
:100910004C01809302011092540190E30BC0E091CE
:100920005401F0E0E45BFE4F9083809154018F5FAF
:100930008093540180915401883088F310920B0108
:10094000FF91EF919F918F910F900FBE0F901F908D
:100950001895CF92DF92EF92FF920F931F93CF9350
:10096000DF93CFE0D7E2CC24DD24DD2011F010E8C6
:1009700001C010E040E050E000E4EE24FF24415BC1
:10098000564014F4100F01C0101B109366000E9413
:100990001D029C01AC0186E0223B380714F0C9011E
:1009A00004C088279927821B930B815B96408C1784
:1009B0009D076CF486E0223B380714F0E90104C07F
:1009C000CC27DD27C21BD30BC15BD640C12E0695B9
:1009D0000894E11CF11C87E0E816F10481F6D39439
:1009E00082E0D81611F6C0926600DF91CF911F9178
:1009F0000F91FF90EF90DF90CF900895F894FFCF84
:040A00005AFF000198
:00000001FF
