:100000000C9492000C94AF000C94AF000C9400027E
:100010000C94AF000C94AF000C94AF000C94AF00A4
:100020000C94AF000C94AF000C94AF000C94AF0094
:100030000C94AF000C94AF000C94AF000C94AF0084
:100040000C94AF000C94AF000C94AF000C94AF0074
:100050000C94AF000C94AF000C94AF000C94AF0064
:100060000C94AF000C94AF000C94AF000C94AF0054
:100070000C94AF000C94AF000C94AF00040309047F
:1000800012036F0062006400650076002E006100BC
:10009000740010034800490044004B0065007900DB
:1000A00073001201100100000008424231E100011A
:1000B000010200010902220001010080320904004E
:1000C00000010300000009210101000122230007B3
:1000D00005810308000A05010906A101050719E0C9
:1000E00029E715002501750195088102950175081C
:1000F0002565190029658100C0000000000000008E
:1001000000000402050206020702080209020A02B0
:100110000B020C020D020E020F021002110212025B
:100120001302140011241FBECFEFD0E1DEBFCDBFFC
:1001300011E0A0E0B1E0E2E8F7E002C005900D9226
:10014000A230B107D9F711E0A2E0B1E001C01D92E1
:10015000AC33B107E1F70E9478030C94BF030C9411
:100160000000E9E6F0E0808180638083EA9A8BE416
:10017000809312018AE58093110108951F93CF9314
:10018000DF9390912201935097FDA2C020911F010F
:1001900080911E018D3209F099C0983009F096C007
:1001A000CCE0D0E0C21BD109CA5DDE4F83EC809366
:1001B00006018AE580930001109202018881807611
:1001C00029F0CE010E944D03282F77C09A8110920A
:1001D0000F018981882321F41092100122E067C069
:1001E000853019F49093230161C0863009F04AC02C
:1001F0008B81813019F482EA90E01BC0823041F497
:1002000084EB90E0909321018093200122E236C09C
:100210008330F9F48A81882341F48CE790E090934D
:1002200021018093200124E029C0813041F480E83D
:1002300090E0909321018093200122E11FC0823041
:10024000E1F482E990E0909321018093200120E184
:1002500015C0813241F486EC90E0909321018093A7
:10026000200129E00BC0823241F486ED90E09093AA
:1002700021018093200123E201C020E080E48093EB
:1002800002011BC0883021F421E085E291E011C019
:10029000893019F49093250109C08A3011F421E0C6
:1002A00006C08B3019F48BE48093120120E08FE0BC
:1002B00091E090932101809320018F81882321F484
:1002C0008E81821708F4282F2093010110922201B9
:1002D0008091000184FF4AC0809101018F3F09F4A1
:1002E00045C0182F893008F018E0811B8093010168
:1002F0008091060198E8892780930601112341F136
:1003000020912001309121018091020186FF0DC0D2
:10031000A7E0B1E080E090E0F901E80FF91FE49177
:10032000ED9301961817C1F708C0912FD901E7E0A6
:10033000F1E08D9181939150E1F71150812F90E080
:100340001F5F0196820F931F9093210180932001DC
:1003500087E091E0612F0E94FC01612F6C5F6C309F
:1003600019F08FEF809301016093000194E183B154
:100370008C7031F49150D9F71092230110921D0125
:10038000DF91CF911F9108951F93DC01162F80916B
:10039000110184FF07C08091120198E8892780939A
:1003A000120103C08AE580931101912FE3E1F1E08E
:1003B0008D91819391501916DCF383E191E0612FC7
:1003C0000E94FC011C5F109311011F910895A82F3A
:1003D000B92F80E090E041E050EA609530E009C03C
:1003E0002D9182279795879510F084279527305E69
:1003F000C8F36F5FA8F30895EADF8D939D93089586
:10040000CF93CFB7CF93C3951B9BE9F71B9B09C035
:100410001B9B07C01B9B05C01B9B03C01B9B01C0F4
:10042000A3C0DF93C0911F01DD27CA5DDE4F1B9B78
:1004300002C0DF91EBCF2F930F931F9303B12FEFE8
:1004400003FB20F94F933F9313B14FEF012703FBB9
:1004500021F93BE031C04E7F012F13B1216028C04C
:10046000102F4D7F2260000003B129C04B7F246014
:10047000012F000013B12BC013B1477F28602AC0A1
:100480004F7E03B120612CC04F7D13B120622FC07D
:100490004F7B03B1206432C0422703B149934FEF31
:1004A0000000102713FB20F913B11C70C9F1297F3C
:1004B00091F2012703FB21F903B1237F89F2315027
:1004C00058F1102713FB22F913B1277E79F2012787
:1004D00003FB23F92F7C81F203B1102713FB24F9CE
:1004E0002F7971F200C013B1012703FB25F92F7397
:1004F00059F200C003B1102713FB26F9223040F255
:1005000000C013B1012703FB27F9243028F64F77E9
:10051000206813B10000F9CF14E01CBB002719C0FC
:100520003B503195C31BD04014E01CBB0881033CF9
:10053000F9F00B34E9F020911D011981110F12130C
:10054000EDCF4A81441F093641F10D3211F0013ED1
:1005500029F7009324013F914F911F910F912F9103
:10056000DF91CCB3C2FD4FCFCF91CFBFCF911895C4
:1005700020912401222379F310912201112369F59E
:1005800034306AF13093220120931E0110911F0133
:100590003BE0311B30931F0122C00091220101304A
:1005A000E4F40AE54F7049F43091000134FD19C0BC
:1005B00000930001C6E0D1E018C03091110134FD74
:1005C00010C000931101C2E1D1E00FC02795A8F43B
:1005D0005150A9F4220F0000F9CF4AE503C042EDC3
:1005E00001C0432FC4E1D0E032E014B11C602B9A6B
:1005F00014B905B120E41CE05F93012756E005B96A
:10060000279520F4515021F4220FF9CF012756E00D
:1006100000003B5A05B9D0F2279528F4515029F42F
:10062000220F0000F9CF012756E0279505B920F4E5
:10063000515021F4220FF9CF012756E0299133239D
:1006400005B921F6037F10912301110FC651D04047
:1006500005B911F010931D0114E01CBB086014B122
:10066000137F402F437F5F9100C000C005B914B9CC
:1006700045B971CF1092C5008DE48093C40088E124
:100680008093C10086E08093C20008958091C000ED
:1006900087FFFCCF8091C6000895FC0183E091E0C4
:1006A0009093210180932001808180768032F1F443
:1006B0008181813051F4E9EFF0E08591949190933C
:1006C00004018093030182E00895823041F485E0C3
:1006D00091E0909321018093200181E008958A3078
:1006E00029F483818093050180E0089580E00895D6
:1006F0000F931F93CF93DF932FE088E190E00FB625
:10070000F894A895809360000FBE2093600010922B
:10071000C5008DE48093C40088E18093C10086E029
:100720008093C20085E085BD0E94B100789480E08E
:1007300001E0E1E0F1E0C591D491A895A89B0AC041
:1007400005BB10910501112329F0853038F0182FD1
:10075000155001C0182F81E0882369F080911101A4
:1007600084FF09C0D0930401C093030183E091E0AA
:1007700062E00E94C4010E94BE00812FDECFF89487
:02078000FFCFA9
:020782005AFF1C
:00000001FF
