:100000000C94B2000C94CF000C94CF000C946302BB
:100010000C94CF000C94CF000C94CF000C94CF0024
:100020000C94CF000C94CF000C94CF000C94CF0014
:100030000C94CF000C94CF000C94CF000C94CF0004
:100040000C94CF000C94CF000C94CF000C94CF00F4
:100050000C94CF000C94CF000C94CF000C94CF00E4
:100060000C94CF000C94CF000C94CF000C94CF00D4
:100070000C94CF000C94CF000C94CF00040309041F
:10008000340355006E00690076006500720073004D
:1000900069007400790020006F00660020005300A2
:1000A0006F0075007400680061006D0070007400DE
:1000B0006F006E0010035000610073007300670052
:1000C00065006E001201100100000008DA1B31E12A
:1000D000000101020001090222000101008019094A
:1000E0000400000103010100092101010001223F78
:1000F000000705810308000A5374617274696E6712
:100100002067656E65726174696F6E2E2E2E0020F9
:100110004E65772070617373776F726420736176B8
:1001200065642E0005010906A10175019508050702
:1001300019E029E715002501810295017508810361
:1001400095057501050819012905910295017503A9
:1001500091039506750815002565050719002965A1
:100160008100C00011241FBECFEFD0E1DEBFCDBFA4
:1001700011E0A0E0B1E0EAE0FBE002C005900D92E2
:10018000A432B107D9F711E0A4E2B1E001C01D9299
:10019000A936B107E1F70E945C040C9483050C9426
:1001A0000000E9E6F0E0808180638083EA9A8BE4D6
:1001B00080933F018AE580933E0108951F93DC01FF
:1001C000162F80913E0184FF07C080913F0198E87F
:1001D000892780933F0103C08AE580933E01912FD8
:1001E000E0E4F1E08D91819391501916DCF380E405
:1001F00091E0612F0E944C021C5F10933E011F9101
:1002000008951F93CF93DF9360914F01635067FD73
:10021000C4C080914C01CCE0D0E0C81BD109CD5ABC
:10022000DE4F80914B018D3209F0A4C0683009F097
:10023000B2C083EC809333018AE580930001109271
:1002400025018881807641F0CE010E941504282F77
:100250008F3F09F47EC084C09A8110923C0189814D
:10026000882321F410923D0122E06CC0853019F4FE
:100270009093500166C0863009F04FC08B81813069
:1002800041F484EC90E090934E0180934D0122E183
:1002900040C0823041F486ED90E090934E0180930F
:1002A0004D0122E236C08330F9F48A81882341F47B
:1002B0008CE790E090934E0180934D0124E029C09B
:1002C000813041F480E890E090934E0180934D019D
:1002D00024E31FC08230E1F484EB90E090934E0160
:1002E00080934D0120E115C0813241F488EE90E009
:1002F00090934E0180934D0129E00BC0823241F46E
:1003000084E291E090934E0180934D012FE301C070
:1003100020E080E48093250123C0883021F421E08F
:1003200082E591E011C0893019F49093520109C01F
:100330008A3011F421E006C08B3019F48BE48093ED
:100340003F0120E08CE391E090934E0180934D01BA
:1003500007C0888187FD2E8180E88093250106C033
:100360008F81882319F48E81821708F0822F809361
:10037000010111C08091250187FF0DC0CE010E94AF
:10038000F1048F3F21F48EE18093000104C08823A3
:1003900011F01092010110924F018091000184FF31
:1003A0004AC0809101018F3F09F445C0182F893060
:1003B00008F018E0811B809301018091330198E8D7
:1003C000892780933301112341F120914D01309110
:1003D0004E018091250186FF0DC0A4E3B1E080E0CD
:1003E00090E0F901E80FF91FE491ED9301961817D9
:1003F000C1F708C0D901912FE4E3F1E08D91819319
:100400009150E1F71150812F90E01F5F0196820F0C
:10041000931F90934E0180934D0184E391E0612FEF
:100420000E944C02612F6C5F6C3019F08FEF80934B
:1004300001016093000194E183B18C7031F491501B
:10044000D9F71092500110924A0110E0992309F453
:1004500011E080912401811731F0112311F40E94E1
:10046000FD0410932401DF91CF911F910895A82FCF
:10047000B92F80E090E041E050EA609530E009C09B
:100480002D9182279795879510F084279527305EC8
:10049000C8F36F5FA8F30895EADF8D939D930895E5
:1004A000A6E088279927AA9569F00197E1F31B999F
:1004B000FCCF1B9BFECF81E09927A3B1019611F0E1
:1004C000AC70D9F70895CF93CFB7CF93C3951B9B4B
:1004D000E9F71B9B09C01B9B07C01B9B05C01B9B0F
:1004E00003C01B9B01C0A3C0DF93C0914C01DD275B
:1004F000CD5ADE4F1B9B02C0DF91EBCF2F930F93A2
:100500001F9303B12FEF03FB20F94F933F9313B1D8
:100510004FEF012703FB21F93BE031C04E7F012F54
:1005200013B1216028C0102F4D7F2260000003B15D
:1005300029C04B7F2460012F000013B12BC013B1E1
:10054000477F28602AC04F7E03B120612CC04F7DB9
:1005500013B120622FC04F7B03B1206432C0422709
:1005600003B149934FEF0000102713FB20F913B19B
:100570001C70C9F1297F91F2012703FB21F903B116
:10058000237F89F2315058F1102713FB22F913B160
:10059000277E79F2012703FB23F92F7C81F203B137
:1005A000102713FB24F92F7971F200C013B1012732
:1005B00003FB25F92F7359F200C003B1102713FB79
:1005C00026F9223040F200C013B1012703FB27F9BE
:1005D000243028F64F77206813B10000F9CF14E0DB
:1005E0001CBB002719C03B503195C31BD04014E001
:1005F0001CBB0881033CF9F00B34E9F020914A015F
:100600001981110F1213EDCF4A81441F093641F1B0
:100610000D3211F0013E29F7009351013F914F91A6
:100620001F910F912F91DF91CCB3C2FD4FCFCF918E
:10063000CFBFCF91189520915101222379F31091CA
:100640004F01112369F534306AF130934F01209343
:100650004B0110914C013BE0311B30934C0122C007
:1006600000914F010130E4F40AE54F7049F43091F4
:10067000000134FD19C000930001C3E3D1E018C0AC
:1006800030913E0134FD10C000933E01CFE3D1E034
:100690000FC02795A8F45150A9F4220F0000F9CFFC
:1006A0004AE503C042ED01C0432FC4E1D0E032E08F
:1006B00014B11C602B9A14B905B120E41CE05F93BF
:1006C000012756E005B9279520F4515021F4220F57
:1006D000F9CF012756E000003B5A05B9D0F2279523
:1006E00028F4515029F4220F0000F9CF012756E0D9
:1006F000279505B920F4515021F4220FF9CF012795
:1007000056E02991332305B921F6037F109150015A
:10071000110FC651D04005B911F010934A0114E0F1
:100720001CBB086014B1137F402F437F5F9100C052
:1007300000C005B914B945B971CF8091270188234C
:1007400059F080912601803238F4E82FF0E0EE5F16
:10075000FE4FE081EE2331F410922A0110922C0119
:1007600080E0089590912301992309F451C08F5F8F
:10077000809326018E2F80538A3048F410922A01EC
:10078000E03311F487E23FC08E2F83513CC08E2F9F
:1007900081568A3138F480912201827080932A0137
:1007A000ED550EC08E2F81548A3168F4809122015C
:1007B00081FD02C082E001C080E080932A01ED53F8
:1007C000E0932C0129C010922A0110922C01ED32E5
:1007D000A9F0EE3248F4E03299F0E132E8F4E93081
:1007E00089F0EA30C9F412C0EE3219F0EF35A1F405
:1007F00002C087E308C082E080932A018DE203C033
:100800008CE201C08BE280932C0106C088E2FBCF12
:1008100010922A0110922C0110922301992319F4AD
:1008200081E08093230181E00895FC01808180763E
:10083000803261F581818230E1F0833018F48130BB
:1008400029F505C0893079F08A3001F51AC08AE2AD
:1008500091E090934E0180934D0110922A011092E5
:100860002C0188E0089586819781019779F48FEFB4
:10087000089582E391E090934E0180934D0181E0D1
:10088000089583818093320180E0089580E0089587
:1008900086B58F738A3110F48F590895843310F41C
:1008A000895D08958E3310F4845008958E3311F0CD
:1008B0008FE508958DE2089582E091E060E070E0B8
:1008C00040E250E00E945B051092260181E0809397
:1008D0002701EAE2F1E0119281E0E233F807D9F76B
:1008E0002EE088E190E00FB6F894A8958093600020
:1008F0000FBE209360000E94D100239A20E040E7C1
:1009000057E1A895CA010197F1F72F5F2A3FC9F770
:10091000239885B5826085BD7894A8950E940101D1
:1009200080913E0184FFF9CF809127018130A9F7A2
:10093000809122018F3F89F30E949D0380932701BC
:100940008AE291E068E00E94DE00E7CF1F93809189
:100950002801109129018823C1F41F5F10932901F8
:1009600011501430E0F11092290111E01093280188
:1009700082E091E068EF70E047E150E00E945205AC
:1009800010922601109327012AC00E944804E12FEB
:10099000F0E0EE5FFE4F8083E12FEF5FE0932901EF
:1009A000EA30E8F0F0E0EE5FFE4F108282E091E086
:1009B00060E070E040E250E00E946B0582E091E070
:1009C0006FE071E045E150E00E945205109226016F
:1009D00081E08093270110922901109228011F9134
:1009E0000895FC01E08180912201E81721F0E09355
:1009F00022010E94A60481E00895CF92DF92EF9237
:100A0000FF920F931F93CF93DF93CFE0D7E2CC24D5
:100A1000DD24DD2011F010E801C010E040E050E0DE
:100A200000E4EE24FF24415B564014F4100F01C093
:100A3000101B109366000E9450029C01AC0186E0DE
:100A4000223B380714F0C90104C088279927821B6C
:100A5000930B815B96408C179D076CF486E0223BDC
:100A6000380714F0E90104C0CC27DD27C21BD30BE3
:100A7000C15BD640C12E06950894E11CF11C87E0AD
:100A8000E816F10481F6D39482E0D81611F6C092EC
:100A90006600DF91CF911F910F91FF90EF90DF9053
:100AA000CF900895FB01DC0102C005900D924150EA
:100AB0005040D8F70895DC01CB01FC01F999FECF35
:100AC00006C0F2BDE1BDF89A319600B40D924150D6
:100AD0005040B8F70895DC01CB0103C02D910E946E
:100AE000760541505040D0F70895262FF999FECF52
:100AF0001FBA92BD81BD20BD0FB6F894FA9AF99A3B
:0A0B00000FBE01960895F894FFCF90
:100B0A005AFF000000000000000000000000000082
:100B1A0000000000000000000000000000000000CB
:040B2A000000FF01C7
:00000001FF
