:100000000C949C000C94B9000C94B9000C94300230
:100010000C94B9000C94B9000C94B9000C94B9007C
:100020000C94B9000C94B9000C94B9000C94B9006C
:100030000C94B9000C94B9000C94B9000C94B9005C
:100040000C94B9000C94B9000C94B9000C94B9004C
:100050000C94B9000C94B9000C94B9000C94B9003C
:100060000C94B9000C94B9000C94B9000C94B9002C
:100070000C94B9000C94B9000C94B9000403090461
:10008000340355006E00690076006500720073004D
:1000900069007400790020006F00660020005300A2
:1000A0006F0075007400680061006D0070007400DE
:1000B0006F006E0010035000610073007300670052
:1000C00065006E001201100100000008DA1B31E12A
:1000D000000101020001090222000101008019094A
:1000E0000400000103010100092101010001223F78
:1000F000000705810308000A05010906A101750131
:100100009508050719E029E71500250181029501E9
:1001100075088103950575010508190129059102E6
:10012000950175039103950675081500256505076A
:10013000190029658100C00011241FBECFEFD0E156
:10014000DEBFCDBF11E0A0E0B1E0ECE5F9E002C018
:1001500005900D92AC30B107D9F711E0ACE0B1E0F9
:1001600001C01D92A135B107E1F70E940B040C9468
:10017000AC040C940000E9E6F0E0808180638083A9
:10018000EA9A8BE4809327018AE5809326010895FB
:100190001F93DC01162F8091260184FF07C08091F8
:1001A000270198E889278093270103C08AE5809377
:1001B0002601912FE8E2F1E08D918193915019167B
:1001C000DCF388E291E0612F0E9419021C5F10931A
:1001D00026011F9108951F93CF93DF9390913701CC
:1001E000935097FDA7C020913401809133018D3247
:1001F00009F09EC0983009F09BC0CCE0D0E0C21B53
:10020000D109C55CDE4F83EC80931B018AE58093A6
:10021000000110920D018881807629F0CE010E94A4
:10022000D803282F7CC09A811092240189818823C9
:1002300021F41092250122E06CC0853019F49093CE
:10024000380166C0863009F04FC08B81813041F49F
:1002500084EC90E0909336018093350122E140C018
:10026000823041F486ED90E0909336018093350121
:1002700022E236C08330F9F48A81882341F48CE786
:1002800090E0909336018093350124E029C08130BD
:1002900041F480E890E0909336018093350124E3A7
:1002A0001FC08230E1F484EB90E09093360180939C
:1002B000350120E115C0813241F488EE90E0909341
:1002C00036018093350129E00BC0823241F488EF7A
:1002D00090E090933601809335012FE301C020E038
:1002E00080E480930D011BC0883021F421E08AE373
:1002F00091E011C0893019F490933A0109C08A3015
:1003000011F421E006C08B3019F48BE480932701AF
:1003100020E084E291E090933601809335018F8153
:10032000882321F48E81821708F4282F209301015D
:10033000109237018091000184FF4AC08091010131
:100340008F3F09F445C0182F893008F018E0811B51
:100350008093010180911B0198E8892780931B01FC
:10036000112341F1209135013091360180910D0129
:1003700086FF0DC0ACE1B1E080E090E0F901E80F4C
:10038000F91FE491ED9301961817C1F708C0912F5A
:10039000D901ECE1F1E08D9181939150E1F7115099
:1003A000812F90E01F5F0196820F931F909336017B
:1003B000809335018CE191E0612F0E941902612F39
:1003C0006C5F6C3019F08FEF809301016093000136
:1003D00094E183B18C7031F49150D9F710923801C7
:1003E0001092320110E0992309F411E080910C0180
:1003F000811731F0112311F40E94570410930C015E
:10040000DF91CF911F910895A82FB92F80E090E040
:1004100041E050EA609530E009C02D918227979520
:10042000879510F084279527305EC8F36F5FA8F397
:100430000895EADF8D939D930895A6E08827992774
:10044000AA9569F00197E1F31B99FCCF1B9BFECFA6
:1004500081E09927A3B1019611F0AC70D9F7089506
:10046000CF93CFB7CF93C3951B9BE9F71B9B09C0D5
:100470001B9B07C01B9B05C01B9B03C01B9B01C094
:10048000A3C0DF93C0913401DD27C55CDE4F1B9B09
:1004900002C0DF91EBCF2F930F931F9303B12FEF88
:1004A00003FB20F94F933F9313B14FEF012703FB59
:1004B00021F93BE031C04E7F012F13B1216028C0EC
:1004C000102F4D7F2260000003B129C04B7F2460B4
:1004D000012F000013B12BC013B1477F28602AC041
:1004E0004F7E03B120612CC04F7D13B120622FC01D
:1004F0004F7B03B1206432C0422703B149934FEFD1
:100500000000102713FB20F913B11C70C9F1297FDB
:1005100091F2012703FB21F903B1237F89F23150C6
:1005200058F1102713FB22F913B1277E79F2012726
:1005300003FB23F92F7C81F203B1102713FB24F96D
:100540002F7971F200C013B1012703FB25F92F7336
:1005500059F200C003B1102713FB26F9223040F2F4
:1005600000C013B1012703FB27F9243028F64F7789
:10057000206813B10000F9CF14E01CBB002719C09C
:100580003B503195C31BD04014E01CBB0881033C99
:10059000F9F00B34E9F0209132011981110F121397
:1005A000EDCF4A81441F093641F10D3211F0013E71
:1005B00029F7009339013F914F911F910F912F918E
:1005C000DF91CCB3C2FD4FCFCF91CFBFCF91189564
:1005D00020913901222379F310913701112369F514
:1005E00034306AF130933701209333011091340194
:1005F0003BE0311B3093340122C0009137010130C0
:10060000E4F40AE54F7049F43091000134FD19C05B
:1006100000930001CBE1D1E018C03091260134FDF8
:1006200010C000932601C7E2D1E00FC02795A8F4BF
:100630005150A9F4220F0000F9CF4AE503C042ED62
:1006400001C0432FC4E1D0E032E014B11C602B9A0A
:1006500014B905B120E41CE05F93012756E005B909
:10066000279520F4515021F4220FF9CF012756E0AD
:1006700000003B5A05B9D0F2279528F4515029F4CF
:10068000220F0000F9CF012756E0279505B920F485
:10069000515021F4220FF9CF012756E0299133233D
:1006A00005B921F6037F10913801110FC651D040D2
:1006B00005B911F01093320114E01CBB086014B1AD
:1006C000137F402F437F5F9100C000C005B914B96C
:1006D00045B971CF80910F01882321F090911001CD
:1006E000992331F4109212011092140180E00895C0
:1006F00020910A01222309F44EC0892F80538A30A9
:1007000048F410921201903311F487E23FC0892F10
:1007100083513CC0892F81568A3138F48091110170
:100720008270809312019D550EC0892F81548A31A9
:1007300068F48091110181FD02C082E001C080E077
:10074000809312019D539093140129C010921201BD
:10075000109214019D32A9F09E3248F4903299F023
:100760009132E8F4993089F09A30C9F412C09E327F
:1007700019F09F35A1F402C087E308C082E080939E
:1007800012018DE203C08CE201C08BE28093140160
:1007900006C088E2FBCF1092120110921401109251
:1007A0000A01222319F481E080930A0181E008956F
:1007B000FC0180818076803261F581818230E1F0B8
:1007C000833018F4813029F505C0893079F08A30FA
:1007D00001F51AC082E191E09093360180933501D2
:1007E000109212011092140188E008958681978179
:1007F000019779F48FEF08958AE191E090933601A3
:100800008093350181E00895838180931A0180E00F
:10081000089580E008951F9381E080930F01E2E145
:10082000F1E0119281E0EA31F807D9F72EE088E192
:1008300090E00FB6F894A895809360000FBE2093C7
:1008400060000E94BB00239A20E048EB5BE0A89583
:10085000CA010197F1F72F5F2A3FC9F723987894CF
:1008600012E6A8950E94EB0090910E01E2E0F1E003
:10087000990F8191982B81E0EA30F807C9F790939E
:100880000E01923311F4109310018091260184FF20
:10089000E8CF80910F01813021F70E946A03809395
:1008A0000F0182E191E068E00E94C800DACFCF92A8
:1008B000DF92EF92FF920F931F93CF93DF93DD248C
:1008C000CFE0D7E2CC24DD2011F010E801C010E029
:1008D00000E440E050E0EE24FF24415B564014F475
:1008E000100F01C0101B109366000E941D029C0196
:1008F000AC0186E0223B380714F0C90104C0882708
:100900009927821B930B815B96408C179D076CF493
:1009100086E0223B380714F0E90104C0CC27DD272C
:10092000C21BD30BC15BD640C12E06950894E11CB7
:10093000F11C87E0E816F10481F6D39482E0D81622
:1009400011F6C0926600DF91CF911F910F91FF9039
:0C095000EF90DF90CF900895F894FFCF57
:0C095C005AFF0000010100000100010032
:00000001FF
