:100000000C949C000C94B9000C945C040C94300289
:100010000C94B9000C94B9000C94B9000C94B9007C
:100020000C94B9000C94B9000C94B9000C94B9006C
:100030000C94B9000C94B9000C94B9000C94B9005C
:100040000C94B9000C94B9000C94B9000C94B9004C
:100050000C94B9000C94B9000C94B9000C94B9003C
:100060000C94B9000C94B9000C94B9000C94B9002C
:100070000C94B9000C94B9000C94B9000403090461
:10008000340355006E00690076006500720073004D
:1000900069007400790020006F00660020005300A2
:1000A0006F0075007400680061006D0070007400DE
:1000B0006F006E0010035000610073007300670052
:1000C00065006E001201100100000008DA1B31E12A
:1000D000000101020001090222000101008019094A
:1000E0000400000103010100092101010001223F78
:1000F000000705810308000A05010906A101750131
:100100009508050719E029E71500250181029501E9
:1001100075088103950575010508190129059102E6
:10012000950175039103950675081500256505076A
:10013000190029658100C00011241FBECFEFD0E156
:10014000DEBFCDBF11E0A0E0B1E0E6E1FBE002C020
:1001500005900D92A430B107D9F711E0A4E0B1E009
:1001600001C01D92A935B107E1F70E94F0040C947B
:1001700089050C940000E9E6F0E0808180638083CB
:10018000EA9A8BE480931F018AE580931E0108950B
:100190001F93DC01162F80911E0184FF07C0809100
:1001A0001F0198E8892780931F0103C08AE5809387
:1001B0001E01912FE0E2F1E08D918193915019168B
:1001C000DCF380E291E0612F0E9419021C5F109322
:1001D0001E011F9108951F93CF93DF9390912F01DC
:1001E000935097FDA7C020912C0180912B018D3257
:1001F00009F09EC0983009F09BC0CCE0D0E0C21B53
:10020000D109CD5CDE4F83EC809313018AE58093A6
:100210000001109205018881807629F0CE010E94AC
:100220002904282F7CC09A8110921C01898188237F
:1002300021F410921D0122E06CC0853019F49093D6
:10024000300166C0863009F04FC08B81813041F4A7
:1002500084EC90E090932E0180932D0122E140C028
:10026000823041F486ED90E090932E0180932D0131
:1002700022E236C08330F9F48A81882341F48CE786
:1002800090E090932E0180932D0124E029C08130CD
:1002900041F480E890E090932E0180932D0124E3B7
:1002A0001FC08230E1F484EB90E090932E018093A4
:1002B0002D0120E115C0813241F488EE90E0909349
:1002C0002E0180932D0129E00BC0823241F488EF8A
:1002D00090E090932E0180932D012FE301C020E048
:1002E00080E4809305011BC0883021F421E082E383
:1002F00091E011C0893019F49093320109C08A301D
:1003000011F421E006C08B3019F48BE480931F01B7
:1003100020E08CE191E090932E0180932D018F815C
:10032000882321F48E81821708F4282F209301015D
:1003300010922F018091000184FF4AC08091010139
:100340008F3F09F445C0182F893008F018E0811B51
:10035000809301018091130198E88927809313010C
:10036000112341F120912D0130912E018091050141
:1003700086FF0DC0A4E1B1E080E090E0F901E80F54
:10038000F91FE491ED9301961817C1F708C0912F5A
:10039000D901E4E1F1E08D9181939150E1F71150A1
:1003A000812F90E01F5F0196820F931F90932E0183
:1003B00080932D0184E191E0612F0E941902612F49
:1003C0006C5F6C3019F08FEF809301016093000136
:1003D00094E183B18C7031F49150D9F710923001CF
:1003E00010922A0110E0992309F411E08091040190
:1003F000811731F0112311F40E9434051093040188
:10040000DF91CF911F910895A82FB92F80E090E040
:1004100041E050EA609530E009C02D918227979520
:10042000879510F084279527305EC8F36F5FA8F397
:100430000895EADF8D939D930895A6E08827992774
:10044000AA9569F00197E1F31B99FCCF1B9BFECFA6
:1004500081E09927A3B1019611F0AC70D9F7089506
:10046000CF93CFB7CF93C3951B9BE9F71B9B09C0D5
:100470001B9B07C01B9B05C01B9B03C01B9B01C094
:10048000A3C0DF93C0912C01DD27CD5CDE4F1B9B09
:1004900002C0DF91EBCF2F930F931F9303B12FEF88
:1004A00003FB20F94F933F9313B14FEF012703FB59
:1004B00021F93BE031C04E7F012F13B1216028C0EC
:1004C000102F4D7F2260000003B129C04B7F2460B4
:1004D000012F000013B12BC013B1477F28602AC041
:1004E0004F7E03B120612CC04F7D13B120622FC01D
:1004F0004F7B03B1206432C0422703B149934FEFD1
:100500000000102713FB20F913B11C70C9F1297FDB
:1005100091F2012703FB21F903B1237F89F23150C6
:1005200058F1102713FB22F913B1277E79F2012726
:1005300003FB23F92F7C81F203B1102713FB24F96D
:100540002F7971F200C013B1012703FB25F92F7336
:1005500059F200C003B1102713FB26F9223040F2F4
:1005600000C013B1012703FB27F9243028F64F7789
:10057000206813B10000F9CF14E01CBB002719C09C
:100580003B503195C31BD04014E01CBB0881033C99
:10059000F9F00B34E9F020912A011981110F12139F
:1005A000EDCF4A81441F093641F10D3211F0013E71
:1005B00029F7009331013F914F911F910F912F9196
:1005C000DF91CCB3C2FD4FCFCF91CFBFCF91189564
:1005D00020913101222379F310912F01112369F524
:1005E00034306AF130932F0120932B0110912C01AC
:1005F0003BE0311B30932C0122C000912F010130D0
:10060000E4F40AE54F7049F43091000134FD19C05B
:1006100000930001C3E1D1E018C030911E0134FD08
:1006200010C000931E01CFE1D1E00FC02795A8F4C0
:100630005150A9F4220F0000F9CF4AE503C042ED62
:1006400001C0432FC4E1D0E032E014B11C602B9A0A
:1006500014B905B120E41CE05F93012756E005B909
:10066000279520F4515021F4220FF9CF012756E0AD
:1006700000003B5A05B9D0F2279528F4515029F4CF
:10068000220F0000F9CF012756E0279505B920F485
:10069000515021F4220FF9CF012756E0299133233D
:1006A00005B921F6037F10913001110FC651D040DA
:1006B00005B911F010932A0114E01CBB086014B1B5
:1006C000137F402F437F5F9100C000C005B914B96C
:1006D00045B971CF809108018C3119F481E680937E
:1006E0004B0180910801823319F482E680934B011B
:1006F00080910801813219F483E680934B01809147
:100700000801833219F484E680934B01809108013B
:10071000843219F485E680934B01809108018B3275
:1007200019F486E680934B0180910801843319F413
:1007300087E680934B0180910801833319F488E6A2
:1007400080934B0180910801833419F489E68093EA
:100750004B01809108018B3319F48AE680934B0199
:1007600080910801823419F48BE680934B018091CB
:1007700008018B3419F48CE680934B0180910801B9
:100780008A3319F48DE680934B01809108018133FF
:1007900019F48EE680934B0180910801843419F49A
:1007A0008FE680934B01809108018D3419F480E726
:1007B00080934B0180910801853119F481E7809382
:1007C0004B01809108018D3219F482E780934B012F
:1007D000809108018B3119F483E780934B0180915C
:1007E00008018C3219F484E780934B018091080151
:1007F0008C3319F485E780934B01809108018A328C
:1008000019F486E780934B01809108018D3119F42A
:1008100087E780934B0180910801823219F488E7C1
:1008200080934B0180910801853319F489E7809307
:100830004B01809108018A3119F48AE780934B01BA
:1008400080914B01089510920A0110920C0180E0F2
:100850000895FC0180818076803261F5818182304B
:10086000E1F0833018F4813029F505C0893079F042
:100870008A3001F51AC08AE091E090932E018093AE
:100880002D0110920A0110920C0188E008958681D2
:100890009781019779F48FEF089582E191E0909329
:1008A0002E0180932D0181E00895838180931201B0
:1008B00080E0089580E008951F920F920FB60F9286
:1008C00011242F933F934F935F936F937F938F9355
:1008D0009F93AF93BF93EF93FF93A89580B18095BB
:1008E00081708093580180910201909103012091C1
:1008F0005801FC01E45BFE4F2083019790930301B4
:1009000080930201809106019091070101969093D6
:1009100007018093060180910601909107010897D5
:1009200009F04DC0109207011092060110924A0181
:10093000109249011AC080910801880F8093080124
:1009400090910801E0914901F0914A01E45BFE4F6A
:100950008081892B809308018091490190914A01FF
:10096000019690934A0180934901809149019091A9
:100970004A01089701F70E946A03109255011092EC
:10098000540120E310C0E0915401F0915501E45B63
:10099000FE4F2083809154019091550101969093D0
:1009A000550180935401809154019091550108970D
:1009B00054F387E090E09093030180930201FF914C
:1009C000EF91BF91AF919F918F917F916F915F91C7
:1009D0004F913F912F910F900FBE0F901F90189540
:1009E00008988FEF82B981E080930901EAE0F1E095
:1009F000119281E0E231F807D9F72EE088E190E02A
:100A00000FB6F894A895809360000FBE2093600005
:100A10000E94BB00239A20E048EB5BE0A895CA0146
:100A20000197F1F72F5F2A3FC9F72398809169005A
:100A30008C6080936900E99A7894A8950E94EB00F5
:100A400080911E0184FFF9CF809109018130A9F7BF
:100A50000E9423048093090110924B018AE091E0E7
:100A600068E00E94C800E9CFCF92DF92EF92FF9238
:100A70000F931F93CF93DF93CFE0D7E2CC24DD24F5
:100A8000DD2011F010E801C010E040E050E000E48B
:100A9000EE24FF24415B564014F4100F01C0101BDC
:100AA000109366000E941D029C01AC0186E0223B6F
:100AB000380714F0C90104C088279927821B930BBB
:100AC000815B96408C179D076CF486E0223B3807CB
:100AD00014F0E90104C0CC27DD27C21BD30BC15B96
:100AE000D640C12E06950894E11CF11C87E0E8165B
:100AF000F10481F6D39482E0D81611F6C092660014
:100B0000DF91CF911F910F91FF90EF90DF90CF90E9
:060B10000895F894FFCFE8
:040B16005AFF07007B
:00000001FF
